{
  "contractName": "EthereumVoting",
  "abi": [
    {
      "inputs": [],
      "payable": false,
      "stateMutability": "nonpayable",
      "type": "constructor"
    },
    {
      "constant": true,
      "inputs": [
        {
          "internalType": "uint256",
          "name": "",
          "type": "uint256"
        }
      ],
      "name": "candidates",
      "outputs": [
        {
          "internalType": "uint256",
          "name": "id",
          "type": "uint256"
        },
        {
          "internalType": "uint256",
          "name": "electionId",
          "type": "uint256"
        },
        {
          "internalType": "string",
          "name": "name",
          "type": "string"
        },
        {
          "internalType": "uint256",
          "name": "voteCount",
          "type": "uint256"
        }
      ],
      "payable": false,
      "stateMutability": "view",
      "type": "function"
    },
    {
      "constant": true,
      "inputs": [],
      "name": "candidatesCount",
      "outputs": [
        {
          "internalType": "uint256",
          "name": "",
          "type": "uint256"
        }
      ],
      "payable": false,
      "stateMutability": "view",
      "type": "function"
    },
    {
      "constant": true,
      "inputs": [
        {
          "internalType": "string",
          "name": "",
          "type": "string"
        }
      ],
      "name": "electionVotesByHash",
      "outputs": [
        {
          "internalType": "uint256",
          "name": "id",
          "type": "uint256"
        },
        {
          "internalType": "uint256",
          "name": "candidateId",
          "type": "uint256"
        },
        {
          "internalType": "string",
          "name": "electionTitle",
          "type": "string"
        },
        {
          "internalType": "string",
          "name": "candidateName",
          "type": "string"
        },
        {
          "internalType": "string",
          "name": "userHash",
          "type": "string"
        },
        {
          "internalType": "uint256",
          "name": "timestamp",
          "type": "uint256"
        }
      ],
      "payable": false,
      "stateMutability": "view",
      "type": "function"
    },
    {
      "constant": true,
      "inputs": [
        {
          "internalType": "uint256",
          "name": "",
          "type": "uint256"
        }
      ],
      "name": "electionVotesById",
      "outputs": [
        {
          "internalType": "uint256",
          "name": "id",
          "type": "uint256"
        },
        {
          "internalType": "uint256",
          "name": "candidateId",
          "type": "uint256"
        },
        {
          "internalType": "string",
          "name": "electionTitle",
          "type": "string"
        },
        {
          "internalType": "string",
          "name": "candidateName",
          "type": "string"
        },
        {
          "internalType": "string",
          "name": "userHash",
          "type": "string"
        },
        {
          "internalType": "uint256",
          "name": "timestamp",
          "type": "uint256"
        }
      ],
      "payable": false,
      "stateMutability": "view",
      "type": "function"
    },
    {
      "constant": true,
      "inputs": [],
      "name": "electionVotesCount",
      "outputs": [
        {
          "internalType": "uint256",
          "name": "",
          "type": "uint256"
        }
      ],
      "payable": false,
      "stateMutability": "view",
      "type": "function"
    },
    {
      "constant": true,
      "inputs": [
        {
          "internalType": "uint256",
          "name": "",
          "type": "uint256"
        }
      ],
      "name": "elections",
      "outputs": [
        {
          "internalType": "uint256",
          "name": "id",
          "type": "uint256"
        },
        {
          "internalType": "string",
          "name": "title",
          "type": "string"
        },
        {
          "internalType": "uint256",
          "name": "closingDate",
          "type": "uint256"
        }
      ],
      "payable": false,
      "stateMutability": "view",
      "type": "function"
    },
    {
      "constant": true,
      "inputs": [],
      "name": "electionsCount",
      "outputs": [
        {
          "internalType": "uint256",
          "name": "",
          "type": "uint256"
        }
      ],
      "payable": false,
      "stateMutability": "view",
      "type": "function"
    },
    {
      "constant": true,
      "inputs": [],
      "name": "sender",
      "outputs": [
        {
          "internalType": "string",
          "name": "",
          "type": "string"
        }
      ],
      "payable": false,
      "stateMutability": "view",
      "type": "function"
    },
    {
      "constant": false,
      "inputs": [],
      "name": "initSender",
      "outputs": [],
      "payable": false,
      "stateMutability": "nonpayable",
      "type": "function"
    },
    {
      "constant": false,
      "inputs": [
        {
          "internalType": "string",
          "name": "title",
          "type": "string"
        },
        {
          "internalType": "uint256",
          "name": "closing",
          "type": "uint256"
        }
      ],
      "name": "addElection",
      "outputs": [],
      "payable": false,
      "stateMutability": "nonpayable",
      "type": "function"
    },
    {
      "constant": false,
      "inputs": [
        {
          "internalType": "uint256",
          "name": "electID",
          "type": "uint256"
        },
        {
          "internalType": "string",
          "name": "_name",
          "type": "string"
        }
      ],
      "name": "addCandidate",
      "outputs": [],
      "payable": false,
      "stateMutability": "nonpayable",
      "type": "function"
    },
    {
      "constant": false,
      "inputs": [
        {
          "internalType": "uint256",
          "name": "candidateId",
          "type": "uint256"
        },
        {
          "internalType": "string",
          "name": "userHash",
          "type": "string"
        }
      ],
      "name": "addElectionVote",
      "outputs": [],
      "payable": false,
      "stateMutability": "nonpayable",
      "type": "function"
    }
  ],
  "bytecode": "0x60806040523480156200001157600080fd5b506000600860006101000a81548160ff0219169083151502179055506200005c6040518060600160405280602d815260200162002ab5602d9139635cd50c586200048360201b60201c565b620000a460016040518060400160405280600f81526020017f45616d6f6e2044652056616c65726100000000000000000000000000000000008152506200053760201b60201c565b620000ec60016040518060400160405280600f81526020017f4d69636861656c20436f6c6c696e7300000000000000000000000000000000008152506200053760201b60201c565b6200011b60405180606001604052806028815260200162002a8d60289139635eb83a186200048360201b60201c565b6200016360026040518060400160405280600c81526020017f4c656f2056617261646b617200000000000000000000000000000000000000008152506200053760201b60201c565b620001ab60026040518060400160405280600d81526020017f53696d6f6e20436f76656e6579000000000000000000000000000000000000008152506200053760201b60201c565b620001f360026040518060400160405280600e81526020017f4265726e617264204475726b616e0000000000000000000000000000000000008152506200053760201b60201c565b620002226040518060600160405280602d815260200162002a60602d9139635eb83a186200048360201b60201c565b6200026a60036040518060400160405280600c81526020017f56656f204c617261646b617200000000000000000000000000000000000000008152506200053760201b60201c565b620002b260036040518060400160405280600d81526020017f43696d6f6e20536f76656e6579000000000000000000000000000000000000008152506200053760201b60201c565b620002fa60036040518060400160405280600e81526020017f4465726e617264204275726b616e0000000000000000000000000000000000008152506200053760201b60201c565b6200034260036040518060400160405280602081526020017f6238303136636464383433643565613164373138616461323435343538636262815250620005fd60201b60201c565b6200038a60046040518060400160405280602081526020017f3565376137626465313930616331613863376563646631356337383937323963815250620005fd60201b60201c565b620003d260046040518060400160405280602081526020017f6637373865653863616565336530626563653937643733333761366538623965815250620005fd60201b60201c565b6200041a60036040518060400160405280602081526020017f3739366362633665396131373134343538316236326433636466353632343435815250620005fd60201b60201c565b6200046260036040518060400160405280602081526020017f3236333439326538343061633637386536363264613237306465626630376432815250620005fd60201b60201c565b6001600860006101000a81548160ff02191690831515021790555062000f78565b620004943362000aa860201b60201c565b8015620004ad5750600860009054906101000a900460ff165b15620004b95762000533565b600460008154809291906001019190505550604051806060016040528060045481526020018381526020018281525060008060045481526020019081526020016000206000820151816000015560208201518160010190805190602001906200052492919062000e3b565b50604082015181600201559050505b5050565b620005483362000aa860201b60201c565b8015620005615750600860009054906101000a900460ff165b156200056d57620005f9565b60056000815480929190600101919050555060405180608001604052806005548152602001838152602001828152602001600081525060016000600554815260200190815260200160002060008201518160000155602082015181600101556040820151816002019080519060200190620005ea92919062000e3b565b50606082015181600301559050505b5050565b6200060e3362000aa860201b60201c565b8015620006275750600860009054906101000a900460ff165b15620006335762000aa4565b60006002826040518082805190602001908083835b602083106200066d578051825260208201915060208101905060208303925062000648565b6001836020036101000a038019825116818451168082178552505050505050905001915050908152602001604051809103902060040180546001816001161561010002031660029004905014620006c45762000aa4565b6000806000600160008681526020019081526020016000206001015481526020019081526020016000206002015490508042111562000704575062000aa4565b60066000815480929190600101919050555060016000848152602001908152602001600020600301600081548092919060010191905055506060600160008581526020019081526020016000206002018054600181600116156101000203166002900480601f016020809104026020016040519081016040528092919081815260200182805460018160011615610100020316600290048015620007ec5780601f10620007c057610100808354040283529160200191620007ec565b820191906000526020600020905b815481529060010190602001808311620007ce57829003601f168201915b505050505090506060600080600160008881526020019081526020016000206001015481526020019081526020016000206001018054600181600116156101000203166002900480601f016020809104026020016040519081016040528092919081815260200182805460018160011615610100020316600290048015620008b85780601f106200088c57610100808354040283529160200191620008b8565b820191906000526020600020905b8154815290600101906020018083116200089a57829003601f168201915b505050505090506040518060c00160405280600654815260200186815260200182815260200183815260200185815260200142815250600360006006548152602001908152602001600020600082015181600001556020820151816001015560408201518160020190805190602001906200093592919062000e3b565b5060608201518160030190805190602001906200095492919062000e3b565b5060808201518160040190805190602001906200097392919062000e3b565b5060a082015181600501559050506003600060065481526020019081526020016000206002856040518082805190602001908083835b60208310620009ce5780518252602082019150602081019050602083039250620009a9565b6001836020036101000a038019825116818451168082178552505050505050905001915050908152602001604051809103902060008201548160000155600182015481600101556002820181600201908054600181600116156101000203166002900462000a3e92919062000ec2565b506003820181600301908054600181600116156101000203166002900462000a6892919062000ec2565b506004820181600401908054600181600116156101000203166002900462000a9292919062000ec2565b50600582015481600501559050505050505b5050565b600062000b6a62000abf8362000b8460201b60201c565b60078054600181600116156101000203166002900480601f01602080910402602001604051908101604052809291908181526020018280546001816001161561010002031660029004801562000b595780601f1062000b2d5761010080835404028352916020019162000b59565b820191906000526020600020905b81548152906001019060200180831162000b3b57829003601f168201915b505050505062000c5060201b60201c565b1562000b7a576000905062000b7f565b600190505b919050565b60608060146040519080825280601f01601f19166020018201604052801562000bbc5781602001600182028038833980820191505090505b50905060008090505b601481101562000c46578060130360080260020a8473ffffffffffffffffffffffffffffffffffffffff168162000bf857fe5b0460f81b82828151811062000c0957fe5b60200101907effffffffffffffffffffffffffffffffffffffffffffffffffffffffffffff1916908160001a905350808060010191505062000bc5565b5080915050919050565b60008062000c65848462000c6e60201b60201c565b14905092915050565b600060608390506060839050600082519050808251101562000c8f57815190505b60008090505b8181101562000ddd5782818151811062000cab57fe5b602001015160f81c60f81b7effffffffffffffffffffffffffffffffffffffffffffffffffffffffffffff191684828151811062000ce557fe5b602001015160f81c60f81b7effffffffffffffffffffffffffffffffffffffffffffffffffffffffffffff1916101562000d46577fffffffffffffffffffffffffffffffffffffffffffffffffffffffffffffffff94505050505062000e35565b82818151811062000d5357fe5b602001015160f81c60f81b7effffffffffffffffffffffffffffffffffffffffffffffffffffffffffffff191684828151811062000d8d57fe5b602001015160f81c60f81b7effffffffffffffffffffffffffffffffffffffffffffffffffffffffffffff1916111562000dcf57600194505050505062000e35565b808060010191505062000c95565b5081518351101562000e15577fffffffffffffffffffffffffffffffffffffffffffffffffffffffffffffffff935050505062000e35565b81518351111562000e2d576001935050505062000e35565b600093505050505b92915050565b828054600181600116156101000203166002900490600052602060002090601f016020900481019282601f1062000e7e57805160ff191683800117855562000eaf565b8280016001018555821562000eaf579182015b8281111562000eae57825182559160200191906001019062000e91565b5b50905062000ebe919062000f50565b5090565b828054600181600116156101000203166002900490600052602060002090601f016020900481019282601f1062000efd578054855562000f3d565b8280016001018555821562000f3d57600052602060002091601f016020900482015b8281111562000f3c57825482559160010191906001019062000f1f565b5b50905062000f4c919062000f50565b5090565b62000f7591905b8082111562000f7157600081600090555060010162000f57565b5090565b90565b611ad88062000f886000396000f3fe608060405234801561001057600080fd5b50600436106100b45760003560e01c80635e6fef01116100715780635e6fef01146106d257806367e404ce146107875780639a74c6951461080a578063a3a9971d14610828578063a7d9b27314610832578063ae173f9f146108f7576100b4565b80631750a3d0146100b957806326a2cb8e1461017e5780632d35a8a2146103125780633477ee2e146103305780633b03a976146103ec5780633f14516f146104b1575b600080fd5b61017c600480360360408110156100cf57600080fd5b8101908080359060200190929190803590602001906401000000008111156100f657600080fd5b82018360208201111561010857600080fd5b8035906020019184600183028401116401000000008311171561012a57600080fd5b91908080601f016020809104026020016040519081016040528093929190818152602001838380828437600081840152601f19601f820116905080830192505050505050509192919290505050610915565b005b6101aa6004803603602081101561019457600080fd5b81019080803590602001909291905050506109ce565b60405180878152602001868152602001806020018060200180602001858152602001848103845288818151815260200191508051906020019080838360005b838110156102045780820151818401526020810190506101e9565b50505050905090810190601f1680156102315780820380516001836020036101000a031916815260200191505b50848103835287818151815260200191508051906020019080838360005b8381101561026a57808201518184015260208101905061024f565b50505050905090810190601f1680156102975780820380516001836020036101000a031916815260200191505b50848103825286818151815260200191508051906020019080838360005b838110156102d05780820151818401526020810190506102b5565b50505050905090810190601f1680156102fd5780820380516001836020036101000a031916815260200191505b50995050505050505050505060405180910390f35b61031a610bd2565b6040518082815260200191505060405180910390f35b61035c6004803603602081101561034657600080fd5b8101908080359060200190929190505050610bd8565b6040518085815260200184815260200180602001838152602001828103825284818151815260200191508051906020019080838360005b838110156103ae578082015181840152602081019050610393565b50505050905090810190601f1680156103db5780820380516001836020036101000a031916815260200191505b509550505050505060405180910390f35b6104af6004803603604081101561040257600080fd5b810190808035906020019064010000000081111561041f57600080fd5b82018360208201111561043157600080fd5b8035906020019184600183028401116401000000008311171561045357600080fd5b91908080601f016020809104026020016040519081016040528093929190818152602001838380828437600081840152601f19601f82011690508083019250505050505050919291929080359060200190929190505050610ca0565b005b61056a600480360360208110156104c757600080fd5b81019080803590602001906401000000008111156104e457600080fd5b8201836020820111156104f657600080fd5b8035906020019184600183028401116401000000008311171561051857600080fd5b91908080601f016020809104026020016040519081016040528093929190818152602001838380828437600081840152601f19601f820116905080830192505050505050509192919290505050610d47565b60405180878152602001868152602001806020018060200180602001858152602001848103845288818151815260200191508051906020019080838360005b838110156105c45780820151818401526020810190506105a9565b50505050905090810190601f1680156105f15780820380516001836020036101000a031916815260200191505b50848103835287818151815260200191508051906020019080838360005b8381101561062a57808201518184015260208101905061060f565b50505050905090810190601f1680156106575780820380516001836020036101000a031916815260200191505b50848103825286818151815260200191508051906020019080838360005b83811015610690578082015181840152602081019050610675565b50505050905090810190601f1680156106bd5780820380516001836020036101000a031916815260200191505b50995050505050505050505060405180910390f35b6106fe600480360360208110156106e857600080fd5b8101908080359060200190929190505050610f61565b6040518084815260200180602001838152602001828103825284818151815260200191508051906020019080838360005b8381101561074a57808201518184015260208101905061072f565b50505050905090810190601f1680156107775780820380516001836020036101000a031916815260200191505b5094505050505060405180910390f35b61078f611023565b6040518080602001828103825283818151815260200191508051906020019080838360005b838110156107cf5780820151818401526020810190506107b4565b50505050905090810190601f1680156107fc5780820380516001836020036101000a031916815260200191505b509250505060405180910390f35b6108126110c1565b6040518082815260200191505060405180910390f35b6108306110c7565b005b6108f56004803603604081101561084857600080fd5b81019080803590602001909291908035906020019064010000000081111561086f57600080fd5b82018360208201111561088157600080fd5b803590602001918460018302840111640100000000831117156108a357600080fd5b91908080601f016020809104026020016040519081016040528093929190818152602001838380828437600081840152601f19601f82011690508083019250505050505050919291929050505061110c565b005b6108ff611590565b6040518082815260200191505060405180910390f35b61091e33611596565b80156109365750600860009054906101000a900460ff165b15610940576109ca565b600560008154809291906001019190505550604051806080016040528060055481526020018381526020018281526020016000815250600160006005548152602001908152602001600020600082015181600001556020820151816001015560408201518160020190805190602001906109bb9291906118f7565b50606082015181600301559050505b5050565b6003602052806000526040600020600091509050806000015490806001015490806002018054600181600116156101000203166002900480601f016020809104026020016040519081016040528092919081815260200182805460018160011615610100020316600290048015610a865780601f10610a5b57610100808354040283529160200191610a86565b820191906000526020600020905b815481529060010190602001808311610a6957829003601f168201915b505050505090806003018054600181600116156101000203166002900480601f016020809104026020016040519081016040528092919081815260200182805460018160011615610100020316600290048015610b245780601f10610af957610100808354040283529160200191610b24565b820191906000526020600020905b815481529060010190602001808311610b0757829003601f168201915b505050505090806004018054600181600116156101000203166002900480601f016020809104026020016040519081016040528092919081815260200182805460018160011615610100020316600290048015610bc25780601f10610b9757610100808354040283529160200191610bc2565b820191906000526020600020905b815481529060010190602001808311610ba557829003601f168201915b5050505050908060050154905086565b60055481565b6001602052806000526040600020600091509050806000015490806001015490806002018054600181600116156101000203166002900480601f016020809104026020016040519081016040528092919081815260200182805460018160011615610100020316600290048015610c905780601f10610c6557610100808354040283529160200191610c90565b820191906000526020600020905b815481529060010190602001808311610c7357829003601f168201915b5050505050908060030154905084565b610ca933611596565b8015610cc15750600860009054906101000a900460ff165b15610ccb57610d43565b60046000815480929190600101919050555060405180606001604052806004548152602001838152602001828152506000806004548152602001908152602001600020600082015181600001556020820151816001019080519060200190610d349291906118f7565b50604082015181600201559050505b5050565b600281805160208101820180518482526020830160208501208183528095505050505050600091509050806000015490806001015490806002018054600181600116156101000203166002900480601f016020809104026020016040519081016040528092919081815260200182805460018160011615610100020316600290048015610e155780601f10610dea57610100808354040283529160200191610e15565b820191906000526020600020905b815481529060010190602001808311610df857829003601f168201915b505050505090806003018054600181600116156101000203166002900480601f016020809104026020016040519081016040528092919081815260200182805460018160011615610100020316600290048015610eb35780601f10610e8857610100808354040283529160200191610eb3565b820191906000526020600020905b815481529060010190602001808311610e9657829003601f168201915b505050505090806004018054600181600116156101000203166002900480601f016020809104026020016040519081016040528092919081815260200182805460018160011615610100020316600290048015610f515780601f10610f2657610100808354040283529160200191610f51565b820191906000526020600020905b815481529060010190602001808311610f3457829003601f168201915b5050505050908060050154905086565b6000602052806000526040600020600091509050806000015490806001018054600181600116156101000203166002900480601f0160208091040260200160405190810160405280929190818152602001828054600181600116156101000203166002900480156110135780601f10610fe857610100808354040283529160200191611013565b820191906000526020600020905b815481529060010190602001808311610ff657829003601f168201915b5050505050908060020154905083565b60078054600181600116156101000203166002900480601f0160208091040260200160405190810160405280929190818152602001828054600181600116156101000203166002900480156110b95780601f1061108e576101008083540402835291602001916110b9565b820191906000526020600020905b81548152906001019060200180831161109c57829003601f168201915b505050505081565b60045481565b60006007805460018160011615610100020316600290049050146110ea5761110a565b6110f33361165c565b60079080519060200190611108929190611977565b505b565b61111533611596565b801561112d5750600860009054906101000a900460ff165b156111375761158c565b60006002826040518082805190602001908083835b6020831061116f578051825260208201915060208101905060208303925061114c565b6001836020036101000a0380198251168184511680821785525050505050509050019150509081526020016040518091039020600401805460018160011615610100020316600290049050146111c45761158c565b60008060006001600086815260200190815260200160002060010154815260200190815260200160002060020154905080421115611202575061158c565b60066000815480929190600101919050555060016000848152602001908152602001600020600301600081548092919060010191905055506060600160008581526020019081526020016000206002018054600181600116156101000203166002900480601f0160208091040260200160405190810160405280929190818152602001828054600181600116156101000203166002900480156112e65780601f106112bb576101008083540402835291602001916112e6565b820191906000526020600020905b8154815290600101906020018083116112c957829003601f168201915b505050505090506060600080600160008881526020019081526020016000206001015481526020019081526020016000206001018054600181600116156101000203166002900480601f0160208091040260200160405190810160405280929190818152602001828054600181600116156101000203166002900480156113ae5780601f10611383576101008083540402835291602001916113ae565b820191906000526020600020905b81548152906001019060200180831161139157829003601f168201915b505050505090506040518060c00160405280600654815260200186815260200182815260200183815260200185815260200142815250600360006006548152602001908152602001600020600082015181600001556020820151816001015560408201518160020190805190602001906114299291906118f7565b5060608201518160030190805190602001906114469291906118f7565b5060808201518160040190805190602001906114639291906118f7565b5060a082015181600501559050506003600060065481526020019081526020016000206002856040518082805190602001908083835b602083106114bc5780518252602082019150602081019050602083039250611499565b6001836020036101000a038019825116818451168082178552505050505050905001915050908152602001604051809103902060008201548160000155600182015481600101556002820181600201908054600181600116156101000203166002900461152a9291906119f7565b50600382018160030190805460018160011615610100020316600290046115529291906119f7565b506004820181600401908054600181600116156101000203166002900461157a9291906119f7565b50600582015481600501559050505050505b5050565b60065481565b60006116446115a48361165c565b60078054600181600116156101000203166002900480601f01602080910402602001604051908101604052809291908181526020018280546001816001161561010002031660029004801561163a5780601f1061160f5761010080835404028352916020019161163a565b820191906000526020600020905b81548152906001019060200180831161161d57829003601f168201915b5050505050611723565b156116525760009050611657565b600190505b919050565b60608060146040519080825280601f01601f1916602001820160405280156116935781602001600182028038833980820191505090505b50905060008090505b6014811015611719578060130360080260020a8473ffffffffffffffffffffffffffffffffffffffff16816116cd57fe5b0460f81b8282815181106116dd57fe5b60200101907effffffffffffffffffffffffffffffffffffffffffffffffffffffffffffff1916908160001a905350808060010191505061169c565b5080915050919050565b6000806117308484611739565b14905092915050565b600060608390506060839050600082519050808251101561175957815190505b60008090505b8181101561189d5782818151811061177357fe5b602001015160f81c60f81b7effffffffffffffffffffffffffffffffffffffffffffffffffffffffffffff19168482815181106117ac57fe5b602001015160f81c60f81b7effffffffffffffffffffffffffffffffffffffffffffffffffffffffffffff1916101561180b577fffffffffffffffffffffffffffffffffffffffffffffffffffffffffffffffff9450505050506118f1565b82818151811061181757fe5b602001015160f81c60f81b7effffffffffffffffffffffffffffffffffffffffffffffffffffffffffffff191684828151811061185057fe5b602001015160f81c60f81b7effffffffffffffffffffffffffffffffffffffffffffffffffffffffffffff191611156118905760019450505050506118f1565b808060010191505061175f565b508151835110156118d3577fffffffffffffffffffffffffffffffffffffffffffffffffffffffffffffffff93505050506118f1565b8151835111156118e957600193505050506118f1565b600093505050505b92915050565b828054600181600116156101000203166002900490600052602060002090601f016020900481019282601f1061193857805160ff1916838001178555611966565b82800160010185558215611966579182015b8281111561196557825182559160200191906001019061194a565b5b5090506119739190611a7e565b5090565b828054600181600116156101000203166002900490600052602060002090601f016020900481019282601f106119b857805160ff19168380011785556119e6565b828001600101855582156119e6579182015b828111156119e55782518255916020019190600101906119ca565b5b5090506119f39190611a7e565b5090565b828054600181600116156101000203166002900490600052602060002090601f016020900481019282601f10611a305780548555611a6d565b82800160010185558215611a6d57600052602060002091601f016020900482015b82811115611a6c578254825591600101919060010190611a51565b5b509050611a7a9190611a7e565b5090565b611aa091905b80821115611a9c576000816000905550600101611a84565b5090565b9056fea265627a7a723158201cdb5d4de62658dc7ddb4466dc5c3b5d2c3a33a8222105c80d80eae25f78f58c64736f6c634300050c003253747564656e7420556e696f6e205669636520507265736964656e7469616c20456c656374696f6e203230323053747564656e7420556e696f6e20507265736964656e7469616c20456c656374696f6e203230323053747564656e7420556e696f6e205669636520507265736964656e7469616c20456c656374696f6e2032303139",
  "source": "pragma solidity >=0.4.21;\n\ncontract EthereumVoting {\n    //Election Model\n    struct Election {\n        uint id;\n        string title;\n        uint closingDate;\n    }\n\n\n    struct Candidate {\n        uint id;\n        uint electionId;\n        string name;\n        uint voteCount;\n    }\n\n\n    struct ElectionVote {\n        uint id;\n        uint candidateId;\n        string electionTitle;\n        string candidateName;\n        string userHash;\n        uint timestamp;\n    }\n\n\n    mapping(uint => Election) public elections;\n    mapping(uint => Candidate) public candidates;\n    mapping(string => ElectionVote) public electionVotesByHash;\n    mapping(uint => ElectionVote) public electionVotesById;\n\n\n    uint public electionsCount;\n    uint public candidatesCount;\n    uint public electionVotesCount;\n\n\n    string public sender;\n    bool private started;\n\n\n    //Constructor\n    constructor() public{\n        started = false;\n\n        addElection(\"Student Union Vice Presidential Election 2019\", 1557466200);\n        addCandidate(1, \"Eamon De Valera\");\n        addCandidate(1, \"Michael Collins\");\n\n\n        addElection(\"Student Union Presidential Election 2020\", 1589131800);\n        addCandidate(2, \"Leo Varadkar\");\n        addCandidate(2, \"Simon Coveney\");\n        addCandidate(2, \"Bernard Durkan\");\n\n\n        addElection(\"Student Union Vice Presidential Election 2020\", 1589131800);\n        addCandidate(3, \"Veo Laradkar\");\n        addCandidate(3, \"Cimon Soveney\");\n        addCandidate(3, \"Dernard Burkan\");\n\n\n        addElectionVote(3, \"b8016cdd843d5ea1d718ada245458cbb\");\n        addElectionVote(4, \"5e7a7bde190ac1a8c7ecdf15c789729c\");\n        addElectionVote(4, \"f778ee8caee3e0bece97d7337a6e8b9e\");\n        addElectionVote(3, \"796cbc6e9a17144581b62d3cdf562445\");\n        addElectionVote(3, \"263492e840ac678e662da270debf07d2\");\n\n        started = true;\n    }\n\n\n    function initSender () public {\n        if (bytes(sender).length != 0){\n           return;\n        }\n\n        sender = toString(msg.sender);\n    }\n\n\n    function toString(address x) private pure returns (string memory) {\n        bytes memory b = new bytes(20);\n        for (uint i = 0; i < 20; i++)\n            b[i] = byte(uint8(uint(x) / (2**(8*(19 - i)))));\n        return string(b);\n    }\n\n\n    function verifySender(address x) private view returns (bool) {\n\n        if(equal(toString(x),sender)){\n            return false;\n        }\n        return true;\n\n    }\n\n\n    function addElection (string memory title, uint closing) public {\n        if(verifySender(msg.sender) && started){\n            return;\n        }\n        electionsCount++;\n        elections[electionsCount] = Election(electionsCount, title, closing);\n    }\n\n\n    function addCandidate (uint electID, string memory _name) public {\n        if(verifySender(msg.sender) && started){\n            return;\n        }\n        candidatesCount++;\n        candidates[candidatesCount] = Candidate(candidatesCount, electID, _name, 0);\n    }\n\n\n    function addElectionVote (uint candidateId, string memory userHash) public {\n        if(verifySender(msg.sender) && started){\n            return;\n        }\n        if (bytes(electionVotesByHash[userHash].userHash).length != 0){\n           return;\n        }\n        uint electionTime = elections[candidates[candidateId].electionId].closingDate;\n        if (now > electionTime){\n            return;\n        }\n        electionVotesCount++;\n        candidates[candidateId].voteCount++;\n        string memory candidateName = candidates[candidateId].name;\n        string memory electionTitle = elections[candidates[candidateId].electionId].title;\n        electionVotesById[electionVotesCount] = ElectionVote(electionVotesCount, candidateId, electionTitle, candidateName, userHash, now);\n        electionVotesByHash[userHash] = electionVotesById[electionVotesCount];\n    }\n\n\n    function compare(string memory _a, string memory _b) private pure returns (int) {\n        bytes memory a = bytes(_a);\n        bytes memory b = bytes(_b);\n        uint minLength = a.length;\n        if (b.length < minLength) minLength = b.length;\n        //@todo unroll the loop into increments of 32 and do full 32 byte comparisons\n        for (uint i = 0; i < minLength; i ++)\n            if (a[i] < b[i])\n                return -1;\n            else if (a[i] > b[i])\n                return 1;\n        if (a.length < b.length)\n            return -1;\n        else if (a.length > b.length)\n            return 1;\n        else\n            return 0;\n    }\n\n\n    function equal(string memory _a, string memory _b) private pure returns (bool) {\n        return compare(_a, _b) == 0;\n    }\n\n}",
  "sourcePath": "/home/jack/Files/College/Project/Blockchain/EthereumBlockchain/contracts/EthereumVoting.sol",
  "compiler": {
    "name": "solc",
    "version": "0.5.12+commit.7709ece9.Emscripten.clang"
  },
  "schemaVersion": "3.0.19",
  "updatedAt": "2020-04-30T10:31:39.418Z",
  "networkType": "ethereum",
  "devdoc": {
    "methods": {}
  },
  "userdoc": {
    "methods": {}
  }
}