{
  "contractName": "EthereumVoting",
  "abi": [
    {
      "inputs": [],
      "payable": false,
      "stateMutability": "nonpayable",
      "type": "constructor"
    },
    {
      "constant": true,
      "inputs": [
        {
          "internalType": "uint256",
          "name": "",
          "type": "uint256"
        }
      ],
      "name": "candidates",
      "outputs": [
        {
          "internalType": "uint256",
          "name": "id",
          "type": "uint256"
        },
        {
          "internalType": "uint256",
          "name": "electionId",
          "type": "uint256"
        },
        {
          "internalType": "string",
          "name": "name",
          "type": "string"
        },
        {
          "internalType": "uint256",
          "name": "voteCount",
          "type": "uint256"
        }
      ],
      "payable": false,
      "stateMutability": "view",
      "type": "function"
    },
    {
      "constant": true,
      "inputs": [],
      "name": "candidatesCount",
      "outputs": [
        {
          "internalType": "uint256",
          "name": "",
          "type": "uint256"
        }
      ],
      "payable": false,
      "stateMutability": "view",
      "type": "function"
    },
    {
      "constant": true,
      "inputs": [
        {
          "internalType": "uint256",
          "name": "",
          "type": "uint256"
        }
      ],
      "name": "elections",
      "outputs": [
        {
          "internalType": "uint256",
          "name": "id",
          "type": "uint256"
        },
        {
          "internalType": "string",
          "name": "title",
          "type": "string"
        }
      ],
      "payable": false,
      "stateMutability": "view",
      "type": "function"
    },
    {
      "constant": true,
      "inputs": [],
      "name": "electionsCount",
      "outputs": [
        {
          "internalType": "uint256",
          "name": "",
          "type": "uint256"
        }
      ],
      "payable": false,
      "stateMutability": "view",
      "type": "function"
    },
    {
      "constant": true,
      "inputs": [],
      "name": "refOptionsCount",
      "outputs": [
        {
          "internalType": "uint256",
          "name": "",
          "type": "uint256"
        }
      ],
      "payable": false,
      "stateMutability": "view",
      "type": "function"
    },
    {
      "constant": true,
      "inputs": [
        {
          "internalType": "uint256",
          "name": "",
          "type": "uint256"
        }
      ],
      "name": "referendumOptions",
      "outputs": [
        {
          "internalType": "uint256",
          "name": "id",
          "type": "uint256"
        },
        {
          "internalType": "uint256",
          "name": "referendumId",
          "type": "uint256"
        },
        {
          "internalType": "string",
          "name": "name",
          "type": "string"
        },
        {
          "internalType": "uint256",
          "name": "voteCount",
          "type": "uint256"
        }
      ],
      "payable": false,
      "stateMutability": "view",
      "type": "function"
    },
    {
      "constant": true,
      "inputs": [
        {
          "internalType": "uint256",
          "name": "",
          "type": "uint256"
        }
      ],
      "name": "referendums",
      "outputs": [
        {
          "internalType": "uint256",
          "name": "id",
          "type": "uint256"
        },
        {
          "internalType": "string",
          "name": "title",
          "type": "string"
        }
      ],
      "payable": false,
      "stateMutability": "view",
      "type": "function"
    },
    {
      "constant": true,
      "inputs": [],
      "name": "referendumsCount",
      "outputs": [
        {
          "internalType": "uint256",
          "name": "",
          "type": "uint256"
        }
      ],
      "payable": false,
      "stateMutability": "view",
      "type": "function"
    }
  ],
  "bytecode": "0x608060405234801561001057600080fd5b506100386040518060600160405280602881526020016109e36028913961010960201b60201c565b61007c6040518060400160405280600c81526020017f4c656f2056617261646b6172000000000000000000000000000000000000000081525061017360201b60201c565b6100c06040518060400160405280600d81526020017f53696d6f6e20436f76656e65790000000000000000000000000000000000000081525061017360201b60201c565b6101046040518060400160405280600e81526020017f4265726e617264204475726b616e00000000000000000000000000000000000081525061017360201b60201c565b6102a6565b6004600081548092919060010191905055506040518060400160405280600454815260200182815250600080600454815260200190815260200160002060008201518160000155602082015181600101908051906020019061016c929190610201565b5090505050565b6005600081548092919060010191905055506040518060800160405280600554815260200160045481526020018281526020016000815250600160006005548152602001908152602001600020600082015181600001556020820151816001015560408201518160020190805190602001906101f0929190610201565b506060820151816003015590505050565b828054600181600116156101000203166002900490600052602060002090601f016020900481019282601f1061024257805160ff1916838001178555610270565b82800160010185558215610270579182015b8281111561026f578251825591602001919060010190610254565b5b50905061027d9190610281565b5090565b6102a391905b8082111561029f576000816000905550600101610287565b5090565b90565b61072e806102b56000396000f3fe608060405234801561001057600080fd5b50600436106100885760003560e01c806375d28bd41161005b57806375d28bd4146102335780639a74c695146102ef578063b2636a501461030d578063faa00d7c146103bb57610088565b8063290309941461008d5780632d35a8a2146100ab5780633477ee2e146100c95780635e6fef0114610185575b600080fd5b6100956103d9565b6040518082815260200191505060405180910390f35b6100b36103df565b6040518082815260200191505060405180910390f35b6100f5600480360360208110156100df57600080fd5b81019080803590602001909291905050506103e5565b6040518085815260200184815260200180602001838152602001828103825284818151815260200191508051906020019080838360005b8381101561014757808201518184015260208101905061012c565b50505050905090810190601f1680156101745780820380516001836020036101000a031916815260200191505b509550505050505060405180910390f35b6101b16004803603602081101561019b57600080fd5b81019080803590602001909291905050506104ad565b6040518083815260200180602001828103825283818151815260200191508051906020019080838360005b838110156101f75780820151818401526020810190506101dc565b50505050905090810190601f1680156102245780820380516001836020036101000a031916815260200191505b50935050505060405180910390f35b61025f6004803603602081101561024957600080fd5b8101908080359060200190929190505050610569565b6040518085815260200184815260200180602001838152602001828103825284818151815260200191508051906020019080838360005b838110156102b1578082015181840152602081019050610296565b50505050905090810190601f1680156102de5780820380516001836020036101000a031916815260200191505b509550505050505060405180910390f35b6102f7610631565b6040518082815260200191505060405180910390f35b6103396004803603602081101561032357600080fd5b8101908080359060200190929190505050610637565b6040518083815260200180602001828103825283818151815260200191508051906020019080838360005b8381101561037f578082015181840152602081019050610364565b50505050905090810190601f1680156103ac5780820380516001836020036101000a031916815260200191505b50935050505060405180910390f35b6103c36106f3565b6040518082815260200191505060405180910390f35b60075481565b60055481565b6001602052806000526040600020600091509050806000015490806001015490806002018054600181600116156101000203166002900480601f01602080910402602001604051908101604052809291908181526020018280546001816001161561010002031660029004801561049d5780601f106104725761010080835404028352916020019161049d565b820191906000526020600020905b81548152906001019060200180831161048057829003601f168201915b5050505050908060030154905084565b6000602052806000526040600020600091509050806000015490806001018054600181600116156101000203166002900480601f01602080910402602001604051908101604052809291908181526020018280546001816001161561010002031660029004801561055f5780601f106105345761010080835404028352916020019161055f565b820191906000526020600020905b81548152906001019060200180831161054257829003601f168201915b5050505050905082565b6003602052806000526040600020600091509050806000015490806001015490806002018054600181600116156101000203166002900480601f0160208091040260200160405190810160405280929190818152602001828054600181600116156101000203166002900480156106215780601f106105f657610100808354040283529160200191610621565b820191906000526020600020905b81548152906001019060200180831161060457829003601f168201915b5050505050908060030154905084565b60045481565b6002602052806000526040600020600091509050806000015490806001018054600181600116156101000203166002900480601f0160208091040260200160405190810160405280929190818152602001828054600181600116156101000203166002900480156106e95780601f106106be576101008083540402835291602001916106e9565b820191906000526020600020905b8154815290600101906020018083116106cc57829003601f168201915b5050505050905082565b6006548156fea265627a7a72315820dd001270d473f9c6fc394c9f88825349d7441c50a1e045a2484b88bbaa38e47164736f6c634300050c003253747564656e7420556e696f6e20507265736964656e7469616c20456c656374696f6e2032303230",
  "source": "pragma solidity >=0.4.21;\n\ncontract EthereumVoting {\n    //Election Model\n    struct Election {\n        uint id;\n        string title;\n    }\n\n    struct Candidate {\n        uint id;\n        uint electionId;\n        string name;\n        uint voteCount;\n    }\n\n    struct Referendum {\n        uint id;\n        string title;\n    }\n\n    struct ReferendumOption {\n        uint id;\n        uint referendumId;\n        string name;\n        uint voteCount;\n    }\n    \n    mapping(uint => Election) public elections;\n    mapping(uint => Candidate) public candidates;\n    mapping(uint => Referendum) public referendums;\n    mapping(uint => ReferendumOption) public referendumOptions;\n\n    uint public electionsCount;\n    uint public candidatesCount;\n    uint public referendumsCount;\n    uint public refOptionsCount;\n\n    //Constructor\n    constructor() public{\n        addElection(\"Student Union Presidential Election 2020\");\n        addCandidate(\"Leo Varadkar\");\n        addCandidate(\"Simon Coveney\");\n        addCandidate(\"Bernard Durkan\");\n    }\n\n    function addElection (string memory _title) private {\n        electionsCount++;\n        elections[electionsCount] = Election(electionsCount, _title);\n    }\n\n    function addCandidate (string memory _name) private {\n        candidatesCount++;\n        candidates[candidatesCount] = Candidate(candidatesCount, electionsCount, _name, 0);\n    }\n}",
  "sourcePath": "/home/jack/Files/College/Project/Blockchain/EthereumBlockchain/contracts/EthereumVoting.sol",
  "compiler": {
    "name": "solc",
    "version": "0.5.12+commit.7709ece9.Emscripten.clang"
  },
  "schemaVersion": "3.0.19",
  "updatedAt": "2020-04-17T20:03:27.335Z",
  "devdoc": {
    "methods": {}
  },
  "userdoc": {
    "methods": {}
  }
}